:020000040800F2
:1000000000040020C1010008F1570008F157000862
:10001000F1570008F1570008F1570008F1570008A0
:10002000F1570008F1570008F15700089135000812
:10003000F1570008F1570008F1570008F157000880
:10004000F1570008F1570008F1570008F157000870
:10005000F1570008F1570008F1570008F157000860
:10006000F1570008F1570008F1570008F157000850
:10007000F1570008F1570008F1570008F157000840
:10008000F1570008F1570008F1570008F157000830
:10009000F1570008F1570008F1570008F157000820
:1000A000F1570008F1570008F1570008F157000810
:1000B000F1340008F1570008F1570008F157000823
:1000C000F1570008F1570008F1570008F1570008F0
:1000D000F1570008F1570008E13F0008F157000808
:1000E000F1570008F1570008F1570008F1570008D0
:1000F000F1570008F1570008F1570008F1570008C0
:10010000F1570008F1570008F1570008F1570008AF
:10011000F1570008F1570008F1570008F15700089F
:10012000F1570008F1570008F1570008F15700088F
:10013000F1570008F1570008F1570008F15700087F
:10014000F1570008F1570008F1570008F15700086F
:10015000F1570008F1570008F1570008F15700085F
:10016000F1570008F1570008F1570008F15700084F
:10017000F1570008F1570008F1570008F15700083F
:10018000F1570008F1570008F1570008F15700082F
:10019000F1570008F1570008F1570008F15700081F
:1001A000F1570008F1570008F1570008F15700080F
:1001B000F1570008F1570008F1570008F1570008FF
:1001C00072B6224880F30988022080F31488BFF3B6
:1001D0006F8F05F04DFB03F04BFC1D481D491E4A77
:1001E00091423CBF41F8040BFAE71C49174A91427F
:1001F0003CBF41F8040BFAE719491A4A1A4B9A42D4
:100200003EBF51F8040B42F8040BF8E700201749F1
:10021000174A91423CBF41F8040BFAE705F0F0FAA7
:1002200005F01EFB134C144DAC4203DA54F8041BCA
:100230008847F9E700F01CFB104C114DAC4203DA83
:1002400054F8041B8847F9E705F002BB00080020BA
:1002500055555555000000200004002000040020E2
:10026000506B000800080020B8080020B8080020E3
:1002700078130020C0010008C0010008C001000878
:10028000C0010008000000000000000000000000A5
:100290002DE9F04FC1F80CD0C3689D46BDE8F08F42
:1002A000002383F311882846A047002005F010F9A9
:1002B00004F0A6FE00DFFEE70000000000000000E2
:1002C000024B00221B605B609A607047340B002079
:1002D000024B01221B605B609A607047300A00206D
:1002E000704700BF00000000000000000000000098
:1002F00008B5094B094A9B69094C9A614FF40055AE
:100300002E46268341F2883005F0E2F9658341F2FA
:10031000883005F0DDF9F4E7780B00201062000862
:10032000000C02400000000000000000000000007F
:1003300010B52F482F4C03F05BFB4FF4A87003F06F
:1003400067FB204603F034FB2B4803F051FB4420AD
:1003500003F05EFB204603F02BFB284803F048FB2C
:10036000142003F055FB204603F022FB244803F041
:100370003FFB0C2003F04CFB204603F019FB214807
:1003800003F036FB042003F043FB204603F010FB90
:100390001D4803F02DFB142003F03AFB204603F028
:1003A00007FB1A4803F024FB102003F031FB204622
:1003B00003F0FEFA164803F01BFB082003F028FBAD
:1003C000204603F0F5FA134803F012FB242003F053
:1003D0001FFB204603F0ECFA0F4803F009FB28202E
:1003E00003F016FB2046BDE8104003F0E1BA00BF61
:1003F00018620008286200083062000840620008A5
:1004000050620008606200087062000880620008A4
:1004100090620008A0620008B062000800000000BE
:1004200038B503F0FDF805F0C3FC144D0024144862
:1004300005F016F8124804F073FF114805F010F8A3
:100440000F4804F06DFF0E4805F00AF80C4804F060
:1004500067FF0B4805F004F8094804F061FF2B78AA
:100460000134002BE3D0074803F0C2FAA00003F0E8
:10047000CFFA0548BDE8384003F09ABAC80C00200E
:10048000340B0020C0620008D062000800000000A9
:1004900038B503F0C5F805F08BFC144D0024144862
:1004A00004F086FE124804F00BFE114804F080FEB2
:1004B0000F4804F005FE0E4804F07AFE0C4804F0E4
:1004C000FFFD0B4804F074FE094804F0F9FD2B7899
:1004D0000134002BE3D0074803F08AFAA00003F0B0
:1004E00097FA0548BDE8384003F062BAC80C00200E
:1004F000300A0020C0620008E0620008000000002E
:1005000038B503F08DF805F053FC154D0024202379
:1005100083F311881348144A0121002305F038F8A9
:10052000114A124842F21071002305F031F80D48CB
:1005300004F0F6FF0D4804F0F3FF002383F3118865
:100540002B780134002BE2D0094803F051FA600007
:1005500003F05EFA0748BDE8384003F029BA00BF4F
:10056000C80C0020B8080020E1020008200B002081
:10057000C0620008F06200080000000000000000F7
:10058000F8B5264A264B274F1B60002402F11001C4
:100590005B601961DA609A615A619C60DC611C627F
:1005A00003F03EF805F004FC2646202585F311886B
:1005B00000211B4803F0E4FC0121194803F0E0FC92
:1005C0000221174803F0DCFC0321154803F0D8FC96
:1005D00086F311884FF0FF31114803F099FC4FF07A
:1005E000FF310F4803F094FC4FF0FF310C4803F04B
:1005F0008FFC0B484FF0FF3103F08AFC3B7801344D
:10060000002BD3D0084803F0F3F9A00003F000FA60
:100610000648BDE8F84003F0CBB900BF440B00200A
:10062000BC0A0020C80C0020C0620008FC62000860
:100630002DE9F04184B004ACDFF8CC802D4F2E4E74
:100640002E4D002344F8043D02F0EAFFD8F818309C
:100650009A6800943346013A38464FF4A47104F086
:100660004FFDD8F8183028609A6800943346013A54
:1006700007F5A4704FF4A47104F042FDD8F81830C7
:1006800068609A6800943346013A07F524704FF485
:10069000A47104F035FDD8F81830A8609A68009469
:1006A0003346013A07F576704FF4A47104F028FD43
:1006B000D8F81830E8609A680094013A33464FF44D
:1006C000A47107F5A46004F01BFD286142F21070CC
:1006D00004F0FEFF02F0CCFF02F0B2FF084803F086
:1006E00087F9039803F094F9064803F061F904B020
:1006F000BDE8F081F00C002011070008080B002075
:10070000C062000808630008780B002000000000A9
:1007100038B5094D044604F043FC04F041FC04F0F4
:100720003FFC04F03DFC2368AA6904332360537F37
:100730005B07F0D538BD00BF780B0020000000003B
:100740002DE9F0433A4E3B4BB2693B4892683B4D32
:10075000DFF80C9183B0002405324FF4A4710094AB
:1007600004F0CEFCB36928609A683548314B009498
:1007700004324FF4A47104F0C3FCB36968609A6852
:1007800030482C4B009403324FF4A47104F0B8FCB1
:10079000B369A8609A682C48264B009402324FF443
:1007A000A47104F0ADFCB369E8609A682748214B56
:1007B000009401324FF4A47104F0A2FC286102F00D
:1007C0002FFF05F0F5FAA0462027202687F3118891
:1007D0001F48002104F064FE002504F019FC88F392
:1007E000118899F800300134002BEED002F040FF60
:1007F00086F311881648294604F052FE04F008FCDE
:1008000085F3118802F01CFF124803F0F1F820462E
:1008100003F0FEF8104803F0EBF804EB440040004E
:1008200003F0F6F80D4803B0BDE8F04303F0C0B89C
:10083000780B002021110008F00C0020080B00208C
:10084000380E0020800F0020C81000201012002059
:10085000300A0020C0620008146300080863000822
:10086000C80C002000000000000000000000000094
:10087000BE4BBF4C1A694FF0FF3100222DE9804872
:1008800019611A61586959615A61186A60F080509B
:1008900018621A62586A59625A62196C41F08051A2
:1008A0001964216841F480712160196F01F440716D
:1008B000B1F5007F8BB003D04FF4803119671A6710
:1008C000AB4CAA4D6268AB4BDFF8E4A2DFF8E482E0
:1008D000DFF8E4B2DFF8E492DFF8E4C2DFF8E4E244
:1008E000A54FA64EA648A74922F4007262609F4A0F
:1008F000126B04F5E4346FEA52226FEA422222635B
:10090000226D6FEA52226FEA422200242A656FF4B8
:10091000A8425C609C4D9A604FF6FF72C3F80C8051
:100920005A61DFF8A4821D62C3F824B04FF4107B33
:10093000C3F80080CAF804B04FF0FF33DFF88C82B0
:10094000CAF808304FF0806BCAF80C80CAF814203F
:100950004FF04008CAF820B0DFF874B2CAF824801B
:10096000CAF800B00AF1A25A0AF5443A0AF5AA7A7E
:10097000C9F80440C9F80830C9F80CA04FF0C04AC3
:10098000C9F81420C9F820A0DFF848A2C9F824A0AB
:10099000DFF844A2C9F800A0DFF84092CCF8044088
:1009A000DFF83CA2CCF80830CCF80C9040F6FF7988
:1009B000CCF81490CCF82040CCF82440CCF800A01F
:1009C000CEF80440CEF80830CEF80C40CEF8142013
:1009D000CEF82040CEF82440CEF800807C60BB608A
:1009E000FC607A613C627C623C607460B360F4607D
:1009F000726134627462346044608360C4604261D6
:100A00000462446204604C608B60CC604A615F4A5F
:100A10000C624FF010094C620C605461C2F83890BF
:100A2000524A5A4D116C5A4F5A48AC62AA4641F08C
:100A300001014AF8040B1164B868DFF8A8B1C5F8E1
:100A400004A04FF0804105F1740AAEF5E63E40F097
:100A50000100C5F840A0C5F84CB0C5F874E0ED62DF
:100A60002D65DFF884C1B860012205F154074A4EB4
:100A700005F10C0E42F2CF0A2846C1F828A06430D6
:100A8000CB6205F1300A2A728C61C5F80CE04C6328
:100A9000C5F810E0CC604FF0800EAF614C606F6223
:100AA0002F624FF08057E861E863A8646864C5F876
:100AB00030A0C5F834A04A610A60039286F81CE3AE
:100AC000C6F880713760CCF80840DCF80CA03349D8
:100AD000334FDFF818E14FF6FF000AEA0000014348
:100AE000CCF80C10F8682F4940F08070F860DEF800
:100AF00000004B6210432027CEF800004FF0000AA0
:100B00008CF81F9001F11C0E8CF822700DEB09007F
:100B1000096049604FF0000B04938C608C624C6755
:100B2000C1F81CE0C1F820E0029109614961CDE9FA
:100B300008AB05940694079404F0A2FE0DEB09009F
:100B400004F006FA184B02991848D1F81490039A49
:100B5000C1F8449023F0070E069B4B6700F1100389
:100B60000361436101F1300342E000BF00380240FD
:100B700000700040000002400014024000180240D3
:100B8000001C02400020024000005655440A00208C
:100B9000002004E0C05E000800E100E00003FA0568
:100BA000F0ED00E0780B002000000220E80A0020B1
:100BB000000402405400014000AA0A00000802405C
:100BC000000C02400010024000AAA02A1545515511
:100BD00080200800000606000180200255505500C4
:100BE000000100558134000800ED00E0001000E035
:100BF000C1F8388081F84D40C1F86C808C664C6635
:100C000081F84E208C6409648461DFF80CC1C9F856
:100C100010304B618B6101F15403DFF800A1DFF864
:100C200000914B65314B03602CF0070C01F1580328
:100C30008460C46081F84C208B65CB65CAF800C025
:100C4000C9F800E084F3118862B68B69284898617E
:100C500001F178000094D821264B04F051FA264B7C
:100C6000836187F311882B7A012B0CD1234B234905
:100C70001B6CC02243F400330B6486F82623C6F8AD
:100C80008481C6F804801E4B1E4A5B6F934200F0BD
:100C90008D8102F58062934200F0888140F24542E6
:100CA0009A6044F24002012042F22C1100241A61A1
:100CB0005861D9601C6019685B68114B02221A7276
:100CC00084F31188042005F013F8082005F010F8CB
:100CD00000940D4C0D480E4B0E4EDFF848A04FF41B
:100CE000A471402204F00CFAA34621E0B1350008BB
:100CF000605E0008214E00080864000800380240C9
:100D0000440A002000100140E00A0020D008002022
:100D1000F1020008180A00207F1300202C0A00208E
:100D20001C0B0020080B002041F2883004F0D0FC9E
:100D3000A04B1B69DB07F7D59F4BA048236002F04F
:100D400037FE9F489F4D02F033FE9F4802F030FE71
:100D50002A21206803689B68984715F8011F00291D
:100D6000F7D19A489A4D02F023FE2A2120680368A1
:100D70009B68984715F8011F0029F7D19548964DB3
:100D800002F016FE2A21206803689B68984715F830
:100D9000011F0029F7D19148914D02F009FE2A2147
:100DA000206803689B68984715F8011F0029F7D150
:100DB0008C488D4D02F0FCFD2A21206803689B6859
:100DC000984715F8011F0029F7D18848884D02F08F
:100DD000EFFD2A21206803689B68984715F8011FDA
:100DE0000029F7D18348844D02F0E2FD2A212068D2
:100DF00003689B68984715F8011F0029F7D17F48C1
:100E00007F4D02F0D5FD2A21206803689B68984732
:100E100015F8011F0029F7D17A4B7B480291039303
:100E200002F0C6FD6548DFF8149202F0C1FD774B71
:100E300002991970029B01330293002759F8273059
:100E400009EB8705002B00F08B80DFF8F48102F0BE
:100E5000CFFB2D21206803689B68984718F8011F75
:100E60000029F7D10298DFF8DC8102F0D1FDDBF830
:100E7000000003682E219B6801379847384602F02E
:100E8000C7FD2021206803689B68984718F8011F58
:100E90000029F7D12B68D3F8008098F8001039B1F9
:100EA000206803689B68984718F8011F0029F7D14C
:100EB000574802F07DFD4FF4FA6004F009FC554BF1
:100EC0002D6833600023CAF80030CAF80430CAF82D
:100ED0000830CAF80C30CAF810304F496A680B70F5
:100EE00002B19047EB689847AB6803B1984702F0AE
:100EF000A7FB494B1B78002B50D0484D2D21206873
:100F000003689B68984715F8011F0029F7D1444BE7
:100F1000444D186802F07CFD2021206803689B681E
:100F2000984715F8011F0029F7D13368394A9342D1
:100F300009D9384D206815F8011B03689B6898474C
:100F400033689D42F6D3384802F032FD039BD3F854
:100F5000009059F8273009EB8705002B7FF475AF17
:100F6000039B53F8049F0393B9F1000F7FF462AF22
:100F700002F03EFB2D4D114802F01AFD462120687B
:100F800003689B68984715F8011F0029F7D11F4B8C
:100F90001B783BB9264802F00BFDC5E6254802F058
:100FA00007FD4BE7244802F003FDBDE640F68B0247
:100FB0009A6076E600000240440A0020246300089C
:100FC00010640008286300082C64000854640008BA
:100FD0003C6300085C640008506300087464000807
:100FE00064630008BC64000878630008C8640008F3
:100FF0008C630008D4640008A0630008EC64000857
:10100000B463000850600008186500083C0A00201E
:10101000306400081C0A0020CC080020DC630008B3
:10102000400A0020F463000834640008F8630008F4
:1010300044640008386400084C640008E05F00085D
:10104000C8630008D863000800000000000000002A
:10105000024B00221B605B609A607047300A0020E0
:10106000202383F3118862B672B683F3118862B6C7
:10107000002383F3118862B6704700BF00000000B0
:10108000704700BF000000000000000000000000EA
:1010900030B4084A084B09481B60151D0424002180
:1010A0001D619C605B60DA609A615A61D861196267
:1010B00030BC7047F00C00200008002081100008B0
:1010C000084A094B094810B40021141D1C611B601B
:1010D0005B60DA609A615A61D861996019625DF863
:1010E000044B7047F00C00202408002081100008F9
:1010F00009490A4B10B400224FF4CC6481E8140073
:1011000003F110009960DA60186158611A609A6101
:101110005DF8044B704700BFF00C0020581300200E
:1011200010B5064CA3695B7F5A0706D4044804F047
:101130003FF8A3695B7F5B07F8D510BD780B0020F3
:10114000300A002000000000000000000000000045
:10115000F0B5124B124F9B6983B09D6802F060FAA4
:1011600004F026FE0024013526460E4B00960E485C
:101170004FF4A4712A4603F0C3FF3B780134002BDF
:10118000F3D00A4802F034FC204602F041FC084843
:1011900003B0BDE8F04002F00BBC00BF780B0020AC
:1011A000C80C0020611D0008F00C0020C06200087F
:1011B000506A00080000000000000000000000006D
:1011C000F0B5134B134F9B6983B09D6802F028FA6A
:1011D00004F0EEFD0024013D26460F4B00964FF42F
:1011E000A4712A460D4803F08BFF04F009F83B7800
:1011F0000134002BF1D00A4802F0FAFB204602F03D
:1012000007FC084803B0BDE8F04002F0D1BB00BFC6
:10121000780B0020C80C0020611D0008F00C002095
:10122000C0620008506A00080000000000000000D2
:101230002DE9F047254B26489A69264B9268DFF83E
:10124000A49082B0002501324FF4A471009503F000
:1012500057FF214B0446186002F0E2F904F0A8FDA4
:10126000AA464FF02008202788F311880021204645
:1012700003F0F6FE2046002103F0F2FE2046002196
:1012800003F0EEFE2046002103F0EAFE00268AF37A
:10129000118899F800300435002BE4D087F31188C9
:1012A0004FF0FF31204603F0DBFE86F3118802F099
:1012B000C7F90A4802F09CFB680002F0A9FB084845
:1012C00002B0BDE8F04702F073BB00BF780B00200E
:1012D000F00C0020F1120008080B0020C06200088A
:1012E00008630008C80C0020000000000000000097
:1012F000074A10B52023946983F31188032003F073
:101300003FFF236A002BF9D0002383F3118810BD1F
:10131000780B00200000000000000000000000002A
:1013200070B52026002502F003FF046B86F31188B8
:10133000214603F095FE85F31188002CF3D170BD92
:1013400070B5054602F06CF904F032FD074E00243A
:101350002846012102F00CFF33780134002BF7D02E
:101360002846002102F004FF204670BDC80C002072
:101370002DE9F0412C4F2D4DBA692D4B92682D4C23
:10138000DFF8C08082B000260132284600964FF474
:10139000A47103F0B5FEBB6920609A6800964346CD
:1013A000023A05F5A4704FF4A47103F0A9FEBB69DD
:1013B00060609A6800964346033A05F524704FF43E
:1013C000A47103F09DFEBB69A0609A680096434635
:1013D000043A05F576704FF4A47103F091FEBB69F1
:1013E000E0609A680096053A43464FF4A47105F50B
:1013F000A46003F085FE20612068FFF7A1FF04468A
:1014000002F01EF90C4802F0F3FA204602F000FB4D
:101410000A4802F0EDFA600002F0FAFA084802B059
:10142000BDE8F04102F0C4BA780B0020F00C0020B7
:1014300021130008080B0020C06200085C6A000845
:1014400008630008611D00080000000000000000A3
:1014500010B5134B13489A69134B926882B0002160
:10146000013200914FF4A47103F04AFE0F4B186053
:10147000FFF766FF044602F0E3F80D4802F0B8FA01
:10148000204602F0C5FA0B4802F0B2FA600002F002
:10149000BFFA094802B0BDE8104002F089BA00BFA7
:1014A000780B0020F00C002021130008080B00200E
:1014B000C06200085C6A00080863000800000000C1
:1014C00010B5134B13489A69134B926882B00021F0
:1014D000013A00914FF4A47103F012FE0F4B186013
:1014E000FFF72EFF044602F0ABF80D4802F080FA39
:1014F000204602F08DFA0B4802F07AFA600002F002
:1015000087FA094802B0BDE8104002F051BA00BFA6
:10151000780B0020F00C002021130008080B00209D
:10152000C06200085C6A0008086300080000000050
:1015300038B5202484F31188012004F0F9F8002341
:1015400083F3118880F00101C9B2012002F000FA92
:10155000054600B138BD84F31188022004F0E8F894
:1015600085F3118880F00101C9B2022002F0F0F980
:1015700005460028EED184F31188042004F0D8F841
:1015800085F3118880F00101C9B2032002F0E0F96F
:1015900005460028DED184F31188082004F0C8F83D
:1015A00085F3118880F00101C9B20420BDE83840FC
:1015B00002F0CEB9000000000000000000000000B2
:1015C00010B586B0EFF311831BB904F0A1F804F055
:1015D0008FF8202383F31188EFF311831BB904F0F4
:1015E00097F804F085F8002383F31188EFF3118353
:1015F00013B9202383F31188EFF3118313B9202348
:1016000083F31188002383F31188202282F3118849
:10161000EFF311820AB183F31188EFF3118313B151
:10162000002383F3118800230493202383F311887C
:10163000049B01AC13B1204603F072FF2046012148
:101640000B4A002303F0A4FF002484F311880A202E
:1016500004F03EF8202383F31188049984F3118861
:101660000120B1FA81F1490902F072F906B010BD0A
:1016700081160008000000000000000000000000CB
:1016800008B5202383F31188002282F3118883F3A5
:101690001188EFF311831BB904F03AF804F028F82D
:1016A000002383F3118808BD000000000000000043
:1016B000024800214FF4FA6202F09ABB00080020B1
:1016C0002DE9F047202382B083F311888F4F7A6988
:1016D000BB699A425DD00021012002F039F9B8BB04
:1016E00080F311884124894D2146013428464FF06A
:1016F000FF32E4B202F07CFB452CF4D1202686F3C5
:1017000011880220A968B1FA81F1490902F020F993
:101710008046E8B980F31188042482464FF02009FE
:1017200086F31188794D284602F03AFB8AF3118836
:10173000C0B202F025F9013CF0D189F311886A6941
:10174000AB699A422AD04146032002F001F928B140
:10175000002383F3118802B0BDE8F08780F311887D
:1017600004206B4901F0BCFF04460028F3D1202679
:1017700086F31188654D284602F012FB033014BF32
:1017800000210121052002F0E3F870B184F31188F3
:10179000E1E7B968003118BF01219DE7AB6813F19B
:1017A000000818BF4FF00108CDE780F311885949B0
:1017B00003460822284602F09BFAA0F10401062005
:1017C000B1FA81F1490902F0C3F804460028C2D1F8
:1017D00086F311880720A968B1FA81F1490902F05E
:1017E000B7F880460028D1D180F311884A4B4B4886
:1017F0009A694B4B9268CDF8008001324FF4A47186
:1018000003F07EFC474B186086F31188E9682B696A
:10181000AA685B1A991AA1F104010820B1FA81F1B2
:10182000490902F095F810B188F3118893E780F325
:10183000118801F005FF86F31188E9682A692B6891
:10184000A961521AAB426961AA6018BF6FF0010426
:1018500009D01A683A60576018461C6203F0F0FC21
:101860003B68BB42F5D1002585F31188202686F31D
:1018700011883B69FA68B968244C9B1A591A0920E7
:10188000B1FA81F1490902F063F8034610B185F31A
:10189000118860E780F311881E490222204602F079
:1018A00027FA0238414241410A2002F051F803462A
:1018B00000287FF450AF17490222204602F018FAA0
:1018C000821E514251410B2002F042F80546002889
:1018D0007FF441AF86F311880C20A168B1FA81F141
:1018E000490902F035F801460028D0D180F311886B
:1018F0000A22204602F07CFA431C594259410D202D
:1019000002B0BDE8F04702F023B800BF0008002095
:10191000686A0008380E0020780B0020F00C0020C8
:10192000B1160008080B00200000000000000000B5
:1019300002484FF4FA6102F0EBBA00BF240800201D
:101940002DE9F041202482B084F31188984F0120C2
:10195000B968B1FA81F1490901F0FAFF0646E8B920
:1019600080F3118884F311884124914D214601347C
:101970002846E4B202F004FB452CF6D1002383F3A1
:101980001188202383F31188AA696B699A423AD09F
:101990003146022001F0DCFF044628B1002383F326
:1019A000118802B0BDE8F08180F31188202383F311
:1019B00011887F48214602F0E3FA043014BF002169
:1019C0000121032001F0C4FFC0B980F31188042471
:1019D000774D4FF0FF31284602F09AFAC0B201F07D
:1019E000CFFF013CF4D1202686F311880420A9689A
:1019F000B1FA81F1490901F0ABFF48B184F31188D4
:101A000002B0BDE8F081AE68003618BF0126BFE71E
:101A100084F311880520674901F062FE0028C0D1D7
:101A200086F311884124624D214601342846E4B2F0
:101A300002F0A6FA452CF6D1002383F311885E4903
:101A40000822284602F014FAA0F104010620B1FA97
:101A500081F1490901F07CFF04460028A1D120262C
:101A600086F311880720A968B1FA81F1490901F0CC
:101A70006FFF0028C2D180F3118886F311884124BA
:101A80004B4D214601342846E4B202F079FA452C48
:101A9000F6D1002383F3118847492846022202F039
:101AA000E7F9A0F102010820B1FA81F1490901F03A
:101AB0004FFF00287FF475AF03463F4902222846B6
:101AC00002F0D6F9A0F102010920B1FA81F1490929
:101AD00001F03EFF804600287FF463AF202686F3A6
:101AE00011880A20A968B1FA81F1490901F030FF93
:101AF000044610B188F3118853E780F3118886F308
:101B000011882146284602F03BFA2B68EA68AC604F
:101B1000AB42AA616A6118BF6FF0010409D01A686C
:101B20003A60576018461C6203F08AFB3B68BB4270
:101B3000F5D14FF0000888F31188202686F311882C
:101B40000B20B968B1FA81F1490901F001FF184D84
:101B500004460028CED180F31188184B18489A69A2
:101B6000184B9268009401324FF4A47103F0C8FA44
:101B7000154B186086F311880C20A968B1FA81F121
:101B8000490901F0E5FE00287FF438AF80F31188A1
:101B900001F056FD28460A2102F0BAF9431C5942C9
:101BA00059410D2002B0BDE8F04101F0D1BE00BFA7
:101BB00024080020686A0008380E0020780B0020F6
:101BC000F00C002031190008080B00200000000074
:101BD0002DE9F8438046202585F31188104E3069A1
:101BE000837F013383774FF0000989F311884F46D3
:101BF00000E02046404508BF49F0010985F31188FF
:101C00000469B4421DBFA37F0133A377002487F387
:101C1000118803F05DF9002CEBD14846BDE8F8834C
:101C2000780B002000000000000000000000000011
:101C3000464B47499B69986810B5013803F028FE68
:101C400004460120A17F091AB1FA81F1490901F086
:101C50007FFE00B110BD202383F31188A37F0133E1
:101C6000A37780F31188A17F0220091AB1FA81F1CC
:101C7000490901F06DFE0028ECD1204603F028F957
:101C8000A17F0320A1F10101B1FA81F1490901F01D
:101C90005FFE0028DED12046FFF79AFF01460420B0
:101CA00001F056FE0028D5D12046FFF791FF0146EE
:101CB000052001F04DFE0028CCD1204603F008F9A4
:101CC000A17FB1FA81F10620490901F041FE002807
:101CD000C0D1217FB1FA81F10720490901F038FE16
:101CE0000028B7D12046FFF773FF0146082001F016
:101CF0002FFE0028AED12046FFF76AFF01460920DB
:101D000001F026FE0028A5D14FF4FA7003F0E0FCA4
:101D1000217FA1F10F03594259410A2001F018FE19
:101D2000002897D12046FFF753FF01460B2001F012
:101D30000FFE00288ED12046FFF74AFF80F00101F8
:101D4000C9B20C20BDE8104001F002BE780B0020A3
:101D5000706A0008000000000000000000000000A1
:101D600003F0B6BB0000000000000000000000000F
:101D7000034B00224FF4A47159601A609A607047B7
:101D8000CC0C00200000000000000000000000005B
:101D900009490A4B10B400224FF4CC6481E81400C6
:101DA00003F110009960DA60186158611A609A6155
:101DB0005DF8044B704700BFF00C00205813002062
:101DC000002070470000000000000000000000003C
:101DD000034B00224FF4A47159601A609A60704757
:101DE000500800200000000000000000000000007B
:101DF00009490A4B10B400224FF4CC6481E8140066
:101E000003F110009960DA60186158611A609A61F4
:101E10005DF8044B704700BFF00C0020580B002009
:101E200070B52F4B2F4C05222025002085F31188FB
:101E300021681960236080F311886168013A0B44BE
:101E4000F4D10525274801F07BFE011C18BF0121B4
:101E5000012001F07DFD90BB013DF3D1214801F04F
:101E60006FFEB0FA80F10220490901F071FD30BB2C
:101E70001D4B202003F1140653F8042B80F3118826
:101E800021681160226085F31188B342F4D10524E2
:101E9000144D284601F054FE011C18BF01210320F7
:101EA00001F056FD58B9013CF2D1284601F048FE38
:101EB000B0FA80F10420490901F04AFD00B170BD7B
:101EC00010220A4B2C6028466A60AB6001F038FE95
:101ED000BDE87040B0FA80F10520490901F038BD35
:101EE000F00C002050080020206A0008C11D0008E6
:101EF0002F4A30499269F8B52F4B956803F11007C6
:101F00002026002453F8042B86F3118808681060FB
:101F10000A6084F31188BB42F4D12849284C681E1A
:101F200003F006FD27492060A81E03F001FD2649A5
:101F30006060E81E03F0FCFC2449A060281F03F049
:101F4000F7FC2349E060681F03F0F2FC2168206180
:101F500041B1616831B1A16821B1E16811B1B0FA54
:101F600080F14909012001F0F3FC00B1F8BD01F056
:101F700067FB0220174901F0B3FB0028F6D10424C7
:101F80000C4801F0DDFD011C18BF0121032001F008
:101F9000DFFC0028EAD1013CF2D1064801F0D0FD77
:101FA000BDE8F840B0FA80F10420490901F0D0BC46
:101FB000780B0020CC0C0020206A0008706A000812
:101FC000080B0020806A0008846A0008886A0008FC
:101FD000946A0008686A0008000000000000000021
:101FE000007801F0CDBC00BF000000000000000040
:101FF00070B52C4B2C489B692C4C9D6882B001A974
:1020000001F0B6FD2A49681E03F042FC2949206010
:10201000A81E03F03DFC69466060234801F0A8FD5E
:102020000099214801F01CFE23490646E81E03F0F2
:102030002FFCA060304601F0C3FD216821B161682A
:1020400011B1A16831B30021012001F081FC08B178
:1020500002B070BD01F0F4FA0220184901F040FB13
:102060000028F5D16946104801F082FDA0F1010178
:102070000320B1FA81F1490901F06AFC0028E7D197
:102080009DE80A000420C91AB1FA81F1490901F05A
:102090005FFCDDE7E368002BD6D12169B1FA81F15D
:1020A0004909D1E7780B002058130020080B0020C5
:1020B000706A0008806A0008846A00088C6A000858
:1020C00070B582B001A9002001F052FD102100205E
:1020D00001F0C6FD011C054618BF0121012001F0D9
:1020E00037FC044608B102B070BD284601F068FD17
:1020F0006FF0FF01204601F0B3FDB0FA80F102203D
:10210000490901F025FC0028EDD101A97B4801F027
:102110002FFD1021794801F0A3FD102106467748D4
:1021200001F09EFD10210546744801F099FD04461A
:10213000304601F045FD284601F042FD204601F001
:102140003FFD69466D4801F013FDA0F10101032038
:10215000B1FA81F1490901F0FBFB0028C3D110213C
:10216000664801F07DFD10210446644801F078FDC9
:1021700010210546614801F073FD01F021FD28465C
:1021800001F01EFD204601F01BFD69465B4801F091
:10219000EFFCA0F101010420B1FA81F1490901F03D
:1021A000D7FB00289FD11121544801F059FD10217F
:1021B0000446524801F054FD0546204601F000FD5A
:1021C00069464E4801F0D4FCA0F102010520B1FAA5
:1021D00081F1490901F0BCFB002884D11021474856
:1021E00001F03EFD69460446444801F0C1FC012867
:1021F00000F081806946414801F0BAFCA0F102017B
:10220000B1FA81F14909062001F0A2FB00287FF410
:102210006AAF284601F0D4FC204601F0D1FC6946A3
:10222000364801F0A5FC461E71427141072001F0BD
:102230008FFB00287FF457AF1021304801F010FDCC
:10224000102105462D4801F00BFD0446284601F0FB
:10225000B7FC6946294801F08BFC851E694269413B
:10226000082001F075FB00287FF43DAF20212348B2
:1022700001F0F6FC01F0A4FC204601F0A1FC694647
:102280001E4801F075FC013841424141092001F02E
:102290005FFB00287FF427AF6946184801F068FC0F
:1022A0000099164801F0DCFC69460446134801F029
:1022B0005FFCB0FA80F10A20490901F049FB0028CF
:1022C0007FF411AF204601F07BFC69460B4801F01A
:1022D0004FFC421E514251410B2001F039FB0028B6
:1022E0007FF401AF9DE80A00CB1A594259410C20F6
:1022F00001F02EFBF7E6014685E700BF580B0020F2
:1023000070B5554C2023A26983F31188536B3BB9F8
:1023100083F311880121012001F01AFB80B170BD07
:102320005942194023EA01035363002383F31188C0
:102330000120B1FA81F1490901F00AFB0028EED130
:10234000A369202282F311885A6B002A6FD0586348
:1023500080F311880146022001F0FAFA0028DED14C
:10236000A369202282F311885A6B013263D080F373
:10237000118801200146032001F0EAFA0028CED19D
:10238000A669202383F31188756B4DB94FF0FF3395
:102390000A203362014603F03BF900284FDB756BDE
:1023A0006942294025EA01057563002383F31188FA
:1023B000B1FA81F14909042001F0CAFA0028AED12E
:1023C000A669202383F31188756B4DB94FF0FF3355
:1023D0000A203362014603F01BF9002833DB756BDA
:1023E0000023736383F31188B5FA85F14909052049
:1023F00001F0AEFA0546002891D1A469202383F3A9
:102400001188636B013308D04FF0FF3323620B2038
:102410000A2103F0FDF8002819DB0023636383F32E
:10242000118829460620BDE8704001F091BA80F37A
:10243000118801208EE7586380F311889AE785F3AD
:1024400011880121B7E785F311880121CFE785F3D2
:1024500011880125E5E700BF780B0020000000008F
:1024600003F01EBB000000000000000000000000A0
:1024700003F016BB00000000000000000000000098
:102480002DE9F04F20258DB085F31188A74CA26966
:10249000536B43F007035363002383F3118803F066
:1024A0000FFBA0F101010120B1FA81F1490901F00E
:1024B0004FFA10B10DB0BDE8F08F03F001FBA0F1B1
:1024C00002010220B1FA81F1490901F041FA002824
:1024D000F0D103F0F5FAA0F104010320B1FA81F183
:1024E000490901F035FA0028E4D103F0D9FAB0FA2D
:1024F00080F10420490901F02BFA06460028D9D1C1
:1025000001F08EF885F311884FF08048D8F82470D8
:1025100086F31188A169864B8A6886480091013A42
:102520004FF4A47102F0ECFD834E306003F0C8FA62
:1025300007F5FA71814607F22622052001F0B0F86E
:102540000028B7D1A9F101010620B1FA81F14909AA
:1025500001F0FEF90028ADD103F0A2FAB0FA80F143
:102560000720490901F0F4F907460028A2D101F03B
:1025700067F885F31188A269536B43F00503536331
:1025800087F3118803F0BCFA471F7942794108208C
:1025900001F0DEF900288DD103F082FAB0FA80F163
:1025A0000920490901F0D4F90746002882D101F039
:1025B00037F885F31188D8F8245087F31188A1697A
:1025C0005B4B8A685B480091013A4FF4A47102F0BA
:1025D00097FD306003F094FA05F5FA71074605F2AD
:1025E00026220A2001F05CF800287FF463AF781EF1
:1025F000414241410B2001F0ABF900287FF45AAF72
:1026000003F04EFAB0FA80F10C20490901F0A0F96C
:10261000074600287FF44EAF01F012F8474D484BB3
:102620002D601B604FF0200B8BF311880DF13009EA
:102630002A6849F8282DA169059701204FF0FF323B
:1026400003910490C5F80090069287F311888BF3EC
:1026500011880DF13008196848F8141D0420A1698B
:102660000A970B9208910990C3F8008087F31188AC
:1026700000F0D6FF8BF311884FF08043D3F824A0ED
:1026800087F31188A2692F4B92682A480093013A78
:102690004FF4A4712C4B02F033FD0AF5FA77306049
:1026A000A4698BF31188636B03F00502052A05D03A
:1026B000052323620B2002F063FD636B23F0050307
:1026C0006363002383F311880D2039460AF2262222
:1026D00000F0E6FF00287FF4EDAE03F0E1F9B0FA78
:1026E00080F10E20490901F033F900287FF4E2AEB1
:1026F000134C00F0A5FF4946104802F0D1FB4146BB
:10270000204602F0CDFB29684A1B514251410F205F
:1027100001F01EF900287FF4CDAE21680B1B594251
:102720005941102001F014F9C4E600BF780B0020D5
:1027300091270008F00C0020080B0020480800201A
:102740004C080020706A00085127000800000000B3
:1027500038B5202585F311880B48002102F088FB4D
:10276000002402F055FC84F311884FF4FA7002F053
:10277000AFFF85F311880548214602F079FB02F08E
:1027800047FC84F3118838BD480800204C0800201D
:1027900010B504464FF4FA7002F09AFF202383F339
:1027A00011880121204601F003FD02F031FC0023D5
:1027B00083F3118810BD00BF00000000000000007E
:1027C000044B054A1B600021126052605B609960F7
:1027D000704700BF5C0800207C080020000000005B
:1027E000024B00221B605B609A6070475C0800200F
:1027F000044A054B126000215260916099601B6091
:102800005B6070475C0800206C080020000000003E
:10281000024B00221B605B609A6070475C080020DE
:10282000024B00221B605B609A607047AC0800207E
:10283000024B00221B605B609A607047AC0800206E
:10284000024B00221B605B609A607047AC0800205E
:102850002DE9F0413B4DAA692023966883F3118846
:10286000394CA3680021002B5ED0002383F311882C
:10287000012001F06DF8014608B1BDE8F081202388
:1028800083F31188A368304A002B54D00121002320
:1028900083F31188022001F05BF807460028ECD191
:1028A000202383F31188DFF8A080404602F010FD5A
:1028B00087F3118821680320091BB1FA81F14909C6
:1028C00001F046F80028D8D1D8F80810B1FA81F103
:1028D0000420490901F03CF80028CED1AB69996881
:1028E0000520711AB1FA81F1490901F031F8002887
:1028F000C3D1404602F0B4FD02F0BAFCD8F8001093
:102900000620C8EB0101B1FA81F1490901F020F874
:102910000028B2D1D8F80810B1FA81F1072049098E
:10292000BDE8F04101F014B8AB69A3609A6BE260B6
:102930009C63012199E7AB699360986BD0609A63BF
:10294000A5E700BF780B00205C0800200000000015
:102950002DE9F041884D894AAB6989489C68894BCB
:10296000894E82B0671C00924FF4A4713A4602F07F
:10297000C7FB04F10208854B30604FF4A471424656
:1029800000938348834B02F0BBFB7060824802F0E7
:1029900067FDAB6999680120611AB1FA81F14909B3
:1029A00000F0D6FF10B102B0BDE8F0814FF47A70AC
:1029B00002F08EFEAB6999680220791AB1FA81F1B2
:1029C000490900F0C5FF0028EDD1744802F048FD28
:1029D000AB6999680320791AB1FA81F1490900F0CD
:1029E000B7FF0028DFD14FF47A7002F071FEAB69B7
:1029F00099680420C1EB0801B1FA81F1490900F09E
:102A0000A7FF0028CFD1654802F08AFCAB6999681E
:102A10000520791AB1FA81F1490900F099FF0028DF
:102A2000C1D14FF47A7002F053FEAB699968062069
:102A3000791AB1FA81F1490900F08AFF0028B2D170
:102A400002F016FCAB6999680720611AB1FA81F1AE
:102A5000490900F07DFF0028A5D100F0F1FD504BA1
:102A600000934FF4A471474B45483A4602F048FBA7
:102A70004C4B30604FF4A47100934246454B4448A0
:102A800002F03EFB7060444802F0EAFCAB699968D2
:102A90000820611AB1FA81F1490900F059FF0028B4
:102AA00081D14FF47A7002F013FEAB6999687B1AFA
:102AB00059425941092000F04BFF00287FF473AFC1
:102AC000364802F0CDFCAB699968C1EB070CDCF12C
:102AD000000141EB0C010A2000F03AFF00287FF4CE
:102AE00062AF4FF47A7002F0F3FDAB699968C1EB05
:102AF000080EDEF100014FF00B0041EB0E0100F07B
:102B000027FF064600287FF44EAF202383F3118869
:102B1000224802F0DDFB02F07BFA86F31188AB69F4
:102B200099687E1A714271410C2000F011FF002853
:102B30007FF439AF4FF47A7002F0CAFDAB6999683F
:102B40007A1A514251410D2000F002FF00287FF413
:102B50002AAF02F08DFBAB699968631A594259415B
:102B60000E2000F0F5FE00287FF41DAF02B0BDE896
:102B7000F04100F065BD00BF780B0020806A0008BE
:102B8000F00C0020B12B0008080B0020706A000830
:102B9000380E0020D12B00086C0800205C080020B3
:102BA000886A0008846A0008000000000000000035
:102BB00010B5064C4FF4FA7002F08AFD204602F080
:102BC0004FFC2046BDE8104002F0AABB6C08002074
:102BD00010B5064C40F2DC5002F07AFD204602F0BF
:102BE0003FFC2046BDE8104002F09ABB5C08002084
:102BF00070B5294E2948B369294D9C6882B002F00E
:102C00002FFC284B0093621C274B28484FF4A471DB
:102C100002F076FA264B2860A21C00934FF4A471B0
:102C2000214B244802F06CFA234B6860E21C0093AD
:102C30004FF4A4711C4B214802F062FA204BA860AB
:102C4000221D00934FF4A471174B1E4802F058FA4E
:102C50001D4BE8604FF4A471621D00931B48124B9A
:102C600002F04EFA28610D4802F05AFB00F0E8FC31
:102C7000B36999680120611AB1FA81F1490900F03C
:102C800067FE08B102B070BD1149022002B0BDE874
:102C9000704000F025BD00BF780B00205C080020CC
:102CA000080B0020946A0008E12C0008F00C0020BA
:102CB000886A0008380E0020846A0008800F00200F
:102CC000806A0008C8100020706A000810120020F6
:102CD000906A0008000000000000000000000000F2
:102CE00038B5064C0546204602F0BAFB287800F0BD
:102CF00047FE2046BDE8384002F012BB5C080020C9
:102D000010B50446034802F053FA2078BDE810409D
:102D100000F036BEAC0800200000000000000000FB
:102D200008B5202282F311888368002B05DD02F0AC
:102D30006FF9002383F3118808BD02F0A1FB02F0B4
:102D400067F9002383F3118808BD00BF000000006D
:102D500008B54FF4FA7002F0BBFC202383F311880E
:102D6000044802F08DFB02F053F9002383F311882D
:102D700008BD00BFAC0800200000000000000000FB
:102D8000F0B587B003AD0024039504950594202683
:102D900086F311882846214602F082FB02F038F9BA
:102DA00084F3118886F311880599A1424FF0010040
:102DB000CCBF0021012100F0CBFD074618B184F300
:102DC000118807B0F0BD80F31188414B41489A69E2
:102DD000414B92680095013A4FF4A47102F090F9CA
:102DE0003E4B1860284602F0E3F986F311880599F6
:102DF0000029CCBF00210121022000F0A9FD18B15B
:102E000087F3118807B0F0BD80F3118886F311882D
:102E1000059B002B24DD02F0FBF8002484F31188CD
:102E2000202787F311880599A1424FF00300D4BFF2
:102E30000021012100F08CFD06460028BFD180F35F
:102E4000118887F3118805990420A1F10101B1FAD5
:102E500081F1490900F07CFD30B186F31188B0E7BB
:102E6000284602F00DFBD6E780F3118887F311881E
:102E7000059B002B24DD02F0CBF8002484F311889D
:102E8000202686F311880599A1424FF00300D4BF94
:102E90000021012100F05CFD054600288FD180F360
:102EA000118886F3118805990520A1F10101B1FA75
:102EB00081F1490900F04CFD30B185F3118880E7BC
:102EC000284602F0DDFAD6E780F3118879E700BFE3
:102ED000780B0020F00C0020212D0008080B0020AA
:102EE00010B51E4B1E489A691E4B92681E4C82B04C
:102EF0000021013200914FF4A47102F001F91B4B43
:102F0000186002F065FD21680120091BB1FA81F10A
:102F1000490900F01DFD08B102B010BDA168B1FA69
:102F200081F10220490900F013FD0028F4D102F0DC
:102F30004FFD21680320091BB1FA81F1490900F016
:102F400007FD0028E8D1A168B1FA81F10420490900
:102F500002B0BDE8104000F0FBBC00BF780B0020C1
:102F6000F00C0020712F0008AC080020080B002096
:102F700010B5044C204602F01BF92046BDE8104075
:102F800002F09EB8AC080020000000000000000025
:102F9000F0B5202583B085F31188544C00212046DC
:102FA00002F05EFB0023014683F311880120A1F1AA
:102FB000FF31B1FA81F1490900F0CAFC08B103B050
:102FC000F0BD21680220091BB1FA81F1490900F026
:102FD000BFFC0028F3D1A168B1FA81F103204909AF
:102FE00000F0B6FC06460028E9D1414B41489A69F9
:102FF000414B92680096013A4FF4A47102F080F8B8
:103000003E4B186085F3118841F28831204602F06A
:1030100027FB074686F3118800F012FBB7FA87F109
:103020000420490900F094FC0028C8D1216805203B
:10303000091BB1FA81F1490900F08AFC0028BED1D0
:10304000A168B1FA81F10620490900F081FC064629
:103050000028B4D100F0E4FA85F311884FF08043E2
:103060005F6A86F311884126304600F089FC85F3BB
:1030700011884FF4FA711D4802F0F2FA002301465C
:1030800083F311880720A1F1FF31B1FA81F14909D9
:1030900000F05EFC002892D121680820091BB1FADB
:1030A00081F1490900F054FC002888D1A168B1FAE7
:1030B00081F10920490900F04BFC0136F6B20028E5
:1030C0007FF47DAF462ECFD10A200D4900F008FBDA
:1030D00000287FF474AF0B2007F6C41107F6D8124E
:1030E00003B0BDE8F04000F0DBBA00BFAC08002040
:1030F000780B0020F00C0020512D0008080B002058
:10310000906A0008000000000000000000000000BD
:10311000F0B54B4D4B4FAB694B489A684B4B4C4C01
:1031200083B005324FF4A471009701F0E9FFAB6959
:103130009A68484B2060013200934FF4A471434BCE
:10314000454801F0DDFFAA69444B92686060033294
:1031500000934FF4A4713D4B414801F0D1FFAA699F
:10316000404B9268A060043200934FF4A471374B37
:103170003D4801F0C5FFAA693C4B9268E06002320D
:103180004FF4A47100933A48304B01F0B9FF20612D
:10319000384801F095FF374801F092FF354801F0BB
:1031A0008FFF344801F08CFF324801F089FF00F0B6
:1031B00047FA0120304900F093FA064608B103B0FF
:1031C000F0BDAB6920489A68204B009705324FF458
:1031D000A47101F095FF2023206083F31188254C12
:1031E0000225274602E0012D0ED00125A3680133F8
:1031F000002BA360F7DC386803683B605F6002F077
:103200001FF8012D0662F0D101F002FF002585F3C1
:10321000118800F015FA202383F31188A168022099
:10322000A1F10101B1FA81F1490900F091FB18B94E
:1032300080F3118803B0F0BD85F3118803B0F0BDB1
:10324000780B0020706A0008F00C0020012D0008A7
:10325000080B0020806A0008380E0020846A0008ED
:10326000800F0020886A0008C8100020946A0008B7
:1032700010120020AC080020906A00080000000036
:10328000F8B500F0CDF9202686F311884FF080457F
:1032900000236C6A83F311884FF47A7002F018FAF5
:1032A00004F57A7104F2EB32012000F0F9F900B173
:1032B000F8BD86F311886C6A80F311884FF47A7038
:1032C00002F006FA04F57A7104F2EB32022000F003
:1032D000E7F90028ECD186F311886C6A80F3118835
:1032E00042F2107002F0F4F904F51C510A46133250
:1032F0001031032000F0D4F90028D9D186F31188C9
:103300006F6A80F3118807F57A7486F31188696A09
:10331000611A0AD1002383F311880420214607F2A1
:10332000EB32BDE8F84000F0BBB9082002F070F9BC
:10333000F0E700BF000000000000000000000000F7
:10334000F8B5494EB3699C68651C284601F070FECB
:10335000011B0746B1FA81F10120490900F0F8FA92
:1033600000B1F8BDB36999680220691AB1FA81F118
:10337000490900F0EDFA0028F3D1384601F058FE73
:10338000291A0320B1FA81F1490900F0E1FA002875
:10339000E7D1B36999680420611AB1FA81F149094A
:1033A00000F0D6FA0028DCD1202383F31188B2691B
:1033B00093680233936080F31188B3699968A71CFE
:1033C000791A0520B1FA81F1490900F0C1FA002803
:1033D000C7D1284601F02CFE011B0620B1FA81F16D
:1033E000490900F0B5FA0028BBD1B36999680720F4
:1033F000791AB1FA81F1490900F0AAFA0028B0D18E
:10340000B369D96B0820691AB1FA81F1490900F052
:103410009FFA0028A5D1E71C384601F009FE281ABA
:1034200041424141092000F093FA002899D1B36943
:1034300099687A1A514251410A2000F089FA00280D
:103440008FD1B369D96B7B1A594259410B2000F0D7
:103450007FFA002885D1202383F31188B3699C600B
:10346000DC6380F311887CE7780B0020000000000B
:10347000014B01221A707047C80C002000000000A8
:10348000024AD36843F08003D36070470044004091
:10349000202383F311880F4B5B6813F4006302D180
:1034A00083F311887047EFF309834FF0807243F87C
:1034B000042CA3F1200282F30988074A116892695B
:1034C0008968926891428CBF044A054A43F8082CE7
:1034D000704700BF00ED00E0780B0020B10200084B
:1034E000B40200080000000000000000000000001E
:1034F0002DE9F8434FF080452B699B0703D4BDE8C5
:10350000F843FFF7C5BF00272F61202686F31188F7
:10351000DFF87890696AD9F81C30D9F828E09A6801
:10352000CEEB0100904209F11C081CD31968DC683D
:1035300072444145C9F82820C1F80480C9F81C101C
:10354000DF6008BFEF6087F311881869A04786F332
:103550001188D9F81C30696AD9F828E09A68CEEB4E
:1035600001008242E2D9434508D07244521A012A2E
:1035700098BF02224FF080430A445A63002383F32A
:103580001188BDE8F843FFF783BF00BF780B002028
:10359000EFF30983203383F30988002383F3118831
:1035A000704700BF000000000000000000000000A5
:1035B00010B4202383F31188094C0A4B2268196840
:1035C000C31D23F00703891A8B429DBF9B182360FC
:1035D00010460020002383F311885DF8044B7047E8
:1035E0002C0A00201C0B002000000000000000003E
:1035F00070B5094E4C243068074D03682D219B6837
:103600009847013CF7D128680449036802221B68E7
:10361000BDE87040184700BFE00A0020A06A00081B
:1036200008B5012002F054F8202383F311884FF0ED
:1036300080420023506A83F3118808BD0000000017
:1036400070B5074C002604F1140554F8040B18B1AA
:1036500001F0D6FD44F8046CAC42F6D170BD00BF59
:10366000080B002000000000000000000000000027
:103670000A4B30B403F114002025002453F8042B26
:103680003AB185F31188517F41F00401517784F3F9
:1036900011888342F2D130BC704700BF080B002074
:1036A00010B4202383F311884FF080440023646A10
:1036B00083F31188641A521A944206D3054C0649C2
:1036C000064A012323700B70106018465DF8044B06
:1036D000704700BF3C0A0020CC080020400A0020B0
:1036E000F0B40E4E0E4F35683B4605E013F8014B23
:1036F00011F8012B944207D1AB42F7D30B781BB9D9
:1037000037601846F0BC7047064C0749074A01234A
:10371000237010600B701846F0BC7047180A002028
:103720001C0A00203C0A0020CC080020400A00208F
:103730002DE9F04F474E484DB369484F9A68484BC2
:10374000DFF8308183B0043A009328463B464FF4BB
:10375000A47101F0D5FCB36942499A68C8F8040025
:10376000A5F5A4743B460091053A20464FF4A47198
:1037700001F0C6FCB3693C499A68C8F800003B46B2
:103780000091013A05F576704FF4A47101F0B8FC90
:10379000B36936499A68C8F810000091023A05F5F5
:1037A00024703B464FF4A47101F0AAFC2022C8F813
:1037B0000C0082F31188B36971699868DFF8B8A0CA
:1037C000C4F8B473033805F5A473002705F51B7B13
:1037D000C4F89802C4F8CC02DFF8A0C0C4F8A06214
:1037E00005F5B6704FF0020E05F5B8754FF00109FA
:1037F000C4F89CB2C4F8B8A3C4F8D4C384F8ACE24B
:10380000C4F8A41284F8AD72C4F8C872C4F8C472C3
:10381000C4F8A87284F8AE920B617361C8F80830DE
:10382000C4F8B402C4F8B852C4F8BC5287F3118883
:10383000D8F8080082F3118801F002FD87F311889F
:10384000FFF7FEFE0A49484603B0BDE8F04FFFF718
:1038500047BF00BF780B0020380E0020A1390008B8
:10386000886A0008946A0008706A0008806A000884
:10387000906A0008080B0020846A0008A102000872
:10388000F0B5274F274EBB69274D9A68274B284C28
:1038900083B0053A009330462B464FF4A47101F0F3
:1038A0002FFCBB6923499A6820602B460091043A9B
:1038B00006F5A4704FF4A47101F022FCBB691E4907
:1038C0009A6860602B460091033A06F524704FF425
:1038D000A47101F015FCBB6918499A68A0602B46D9
:1038E0000091023A06F576704FF4A47101F008FCDD
:1038F000BB6913499A68E060013A2B46009106F5CE
:10390000A4604FF4A47101F0FBFB2061FFF798FE67
:103910000C49012003B0BDE8F040FFF7E1BE00BF55
:10392000780B0020F00C0020A1390008946A0008F0
:10393000080B0020886A0008846A0008806A000872
:10394000706A0008906A0008000000000000000093
:1039500059B910B40649074C074A01232370106077
:103960000B7018465DF8044B7047002318467047EB
:10397000CC0800203C0A0020400A00200000000083
:10398000202383F31188044A1368591C1160002214
:10399000187082F311887047180A00200000000098
:1039A0000078FFF7EDBF00BF00000000000000003E
:1039B00070B50178094D044639B1286803689B68E1
:1039C000984714F8011F0029F7D1286804490368B3
:1039D00002221B68BDE87040184700BFE00A0020C3
:1039E000A06A0008000000000000000000000000C5
:1039F00038B50178044641B1044D286803689B68D6
:103A0000984714F8011F0029F7D138BDE00A0020BB
:103A100010B370B5134A84B06D466C46A2FB001318
:103A2000DB0803EB8301A0EB410000F13001C9B2D8
:103A300004F8011B1846002BF0D1AC420AD90A4EFB
:103A4000013C01E014F8011D306803689B68984749
:103A5000AC42F7D104B070BD034B18680368302145
:103A60009B681847CDCCCCCCE00A002000000000B9
:103A70002C492D4B4FF080504FF4404208641A609F
:103A80000B6843F001030B600A68264B9007FBD5D7
:103A90009A6822F003029A609A689A6019468B68C5
:103AA000204A13F00C03FAD1116801F0F9011160FA
:103AB0009360136843F4803313601168194B8903D2
:103AC000FBD55A6F42F001025A675A6F15499007A9
:103AD000FBD5164B4B600B68134A43F080730B60A9
:103AE00053685904FCD50F490A680E4B9201FBD567
:103AF0000F4A1049996040F2057111609A6842F0CE
:103B000002029A601A469368064903F00C03082BD8
:103B1000F9D14B6C43F480434B644B6E43F48043C8
:103B20004B66704700380240007000400854400760
:103B3000003C0240009488380000000000000000B3
:103B400008B52022034682F31188006828B1026874
:103B50001A60002383F3118808BD9A68002AF8D000
:103B600058689047002383F3118808BD00000000C7
:103B700070B50F4C002818BF044604F11005284604
:103B80000E4601F06DFCA36873B10022144658681C
:103B90001B6801340244002BF9D106B1326028467B
:103BA00001F0BEFB204670BD1A461C46F5E700BF7B
:103BB000E80A0020000000000000000000000000F3
:103BC000F8B550F8085C05F110070646A0F10804A6
:103BD0000835384601F044FC2B46AB4204D0A342E2
:103BE00002D31B68AB42FAD11A681AB1944201D3CE
:103BF0001346F2E756F8041C46F8082C1C6001F145
:103C0000080256F8085CA018A8420AD0596801F1C9
:103C100008021A44944212D03846BDE8F84001F038
:103C20007FBB4068A25846F8082C0A18083246F8AC
:103C3000042C596801F108021A449442ECD116E9A7
:103C400005000A44083218605A603846BDE8F8405A
:103C500001F066BB00000000000000000000000052
:103C6000F8B5214E002818BF064606F110070731A7
:103C7000384621F0070506F1080401F0F1FB03E0E6
:103C800043689D4212D9044620680028F8D138467E
:103C900001F046FB33682BB305F10800984708B3E1
:103CA0000660456000F108042046F8BD05F10802F1
:103CB0009A4209D9036823600446384644F8086BE1
:103CC00001F02EFB2046F8BD6FF00701491B00EB09
:103CD000020E0B4401688150CEF80430C4F800E0B5
:103CE0004560E9E70024DFE7E80A00200000000063
:103CF0002DE9F04F83B004468B4615460193C76902
:103D00004FF0200888F311880026B146A3680BF114
:103D1000010A2046FBB16269A368511C013B616145
:103D2000A3609BF800301370236962699A4224BF34
:103D3000E368636107B1B84789F31188013D06F173
:103D4000010612D088F31188A368D3460BF1010A4B
:103D50002046002BDFD120460199009301F0A0FC02
:103D6000009B0028D2D083F31188304603B0BDE811
:103D7000F08F00BF00000000000000000000000005
:103D80003030FFF7B5BF00BF0000000000000000AA
:103D900030304FF0FF33FFF7ABBF00BF0000000033
:103DA00038B5426983699A4218D082680569591CFE
:103DB000013282608161A9421C780CD2036898426A
:103DC00007D01A680260002150601846196201F09D
:103DD00037FA204638BDC3688361EFE78268002A5E
:103DE000E3D06FF0020038BD0000000000000000CA
:103DF000F8B504460F461646202383F3118803E0E6
:103E000001F04EFC002819DBA56820463146002D44
:103E1000F6D06269A368511C013B6161A360177011
:103E2000236962699A4224BFE3686361E3690BB165
:103E300020469847002080F31188F8BD85F311884B
:103E4000F8BD00BF000000000000000000000000FE
:103E50003030FFF7CDBF00BF0000000000000000C1
:103E600030304FF0FF32FFF7C3BF00BF000000004B
:103E70002DE9F04F044683B0894693461D46D0F89D
:103E80001C80202787F3118800260197B246B8F1DD
:103E9000000F05D02046C04702E001F001FCE0B968
:103EA000A76820462946002FF7D0A269A368511CB5
:103EB000013BA161A360137809F8013B2369A26962
:103EC0009A4224BFE368A3618AF311880136B3459F
:103ED00005D0019B83F31188D9E787F31188304619
:103EE00003B0BDE8F08F00BF00000000000000003C
:103EF0000C30FFF7BDBF00BF000000000000000055
:103F00000C304FF0FF33FFF7B3BF00BF00000000DD
:103F100070B520230E46044683F31188C3692BB184
:103F2000984703E001F0BCFB002815DBA56820469C
:103F30003146002DF6D0A169A36825694A1C013BD2
:103F4000AA42A360A26128BFE368087828BFA361E2
:103F5000002383F3118870BD85F3118870BD00BF05
:103F60000C30FFF7D5BF00BF0000000000000000CC
:103F70000C304FF0FF31FFF7CBBF00BF0000000057
:103F800043698269934210B51DD082685C1C01327E
:103F9000826044611970426903699A420CD20368D5
:103FA00098420ED01A6802600024506018461C62C5
:103FB00001F046F9204610BDC3684361036898428A
:103FC000F0D1002010BD8268002ADED06FF003001F
:103FD00010BD00BF00000000000000000000000055
:103FE0002DE9F0414B4F7D6FD5F80C802B68DE0535
:103FF0009CB25ED4202383F3118814F02F0F08D1D4
:1040000031E0A0066E681DD42C68A4B214F02F0F06
:1040100029D02007F5D014F0080F0CBF0021802113
:10402000E20748BF41F02001A30748BF41F040012B
:10403000660748BF41F48071374800F019FFA006B9
:104040006E68E1D57B697BB3F1B23448FFF798FF26
:104050000028D9DA3048802100F00AFF2C68A4B289
:1040600014F02F0FD5D1002383F3118818F0800F9F
:1040700001D022062CD4630612D5202383F31188A5
:104080007A6CBB6C23489A422FD04FF6BF7308EA74
:1040900003036FF04002EB6000232A6083F3118872
:1040A000BDE8F041FFF7F4B91B48042100F0E0FE41
:1040B000CAE7202383F311884FF40071381D00F004
:1040C000D7FE6FF480732B60002383F3118891E790
:1040D000202383F311881248FFF762FE00280CDBCF
:1040E0006860002383F31188C5E7836B002BCCD075
:1040F0000430102100F0BCFEC7E70748082100F09B
:10410000B7FE4FF63F7308EA030343F04003EB604A
:10411000E7E700BF440A0020480A0020500A0020B8
:10412000740A0020000000000000000000000000F1
:1041300010B5202383F311880B4CA269134653F862
:10414000280F984208D0016891620D224B6000232D
:10415000027783F3118810BD0E2001F011F8A269D7
:10416000906A02F12803EEE7780B002000000000BF
:104170000E4B70B520229C6982F3118800F128054E
:10418000067F2562C26A62600E2E2163256014607C
:10419000C46207D00C2000F0F3FF206A002383F3F1
:1041A000118870BD01F04CF8F4E700BF780B0020D7
:1041B000436B027F19430A2A41630AD00B2A00D0BD
:1041C0007047036A19408B42FAD10023036201F061
:1041D00037B8036A1942F8D1704700BF00000000E9
:1041E00070B40B4B0B4A1A6002F11406052500242B
:1041F00003F11C0003F110015E605D629C61DA60F6
:104200009A60D86118621961596170BC704700BF2B
:1042100084080020F00C00200000000000000000D6
:10422000064A074B07491260002009604960526046
:10423000906098601B605B60704700BF5C08002066
:104240006C0800207C080020000000000000000036
:10425000044B054A1B600021126052605B6099604C
:10426000704700BF5C0800207C08002000000000B0
:104270002DE9F041324C8AB02020246080F311886F
:10428000304923680AAD012745F8283D8B69019321
:104290004FF0FF320023256002970393049283F3CB
:1042A000118880F311880AAE206846F8140D8969D8
:1042B00006914FF00208089309922660CDF81C8001
:1042C00083F311882168091B18BF01213846FFF7C5
:1042D0003FFB10B10AB0BDE8F0812946204600F04E
:1042E000DFFD2168091B18BF01214046FFF730FBA5
:1042F0000028EFD13146204600F0D2FD216803208E
:10430000091BB1FA81F14909FFF722FB0028E1D12D
:104310000D4E0446072501E0013465B125FA04F38A
:10432000DB07F9D507FA04F356F82420204625EADE
:1043300003059047F0E705490420FFF7D1F9C9E7E5
:1043400048080020780B0020C06A0008B06A000806
:104350004320FFF715BB00BF000000000000000075
:104360004220FFF70DBB00BF00000000000000006E
:104370004120FFF705BB00BF000000000000000067
:1043800001F08EBB000000000000000000000000F3
:104390002DE9F041202382B083F31188964D696A9C
:1043A0000120A1F10501B1FA81F14909FFF7D0FA25
:1043B000002840F08A8080F31188422420464FF084
:1043C000FF3101F0BDFBB0FA80F102204909FFF78F
:1043D000BFFA013470B9462CF0D14FF0FF314120C3
:1043E00001F0F6FBB0FA80F103204909FFF7B0FABB
:1043F000002870D002B0BDE8F08186F3118887F301
:1044000011882A20A169B1FA81F14909FFF7A0FAC0
:10441000002840F09F8286F31188E168A368C3EB0F
:10442000010EDEF1000141EB0E012B20FFF790FAA7
:104430000028DFD187F3118823686268A360D11A4E
:1044400004F11C008910E36001F02AF804F1100067
:10445000314601F025F800F0DBFD86F3118887F383
:104460001188616A4D1F694269412C20FFF770FA7B
:10447000002840F06F8286F3118887F311882D2081
:10448000A169B1FA81F14909FFF762FA002840F009
:10449000618286F3118887F311882168A368CA1A9C
:1044A000514251412E20FFF753FA002840F052822A
:1044B00086F3118887F311882168E368CB1A594283
:1044C0004FF02F005941FFF743FA002383F311887F
:1044D00002B0BDE8F0810121582001F031FBA0F1CC
:1044E000FF310420B1FA81F14909FFF731FA04469E
:1044F00000287FF47FAF202686F31188582001F032
:1045000047FB014684F311880520A1F1FF31B1FA80
:1045100081F14909FFF71CFA00287FF46BAF0121F4
:10452000582001F055FBA0F1FF310620B1FA81F1CE
:104530004909FFF70DFA044600287FF45BAF86F3C4
:104540001188582001F06CFB014684F31188072084
:10455000A1F1FF31B1FA81F14909FFF7F9F980467C
:1045600000287FF447AF86F311880820696AB1FA02
:1045700081F14909FFF7ECF91F4C074610B188F3A8
:10458000118837E780F3118886F31188A169A1F1BA
:10459000050EDEF1000141EB0E010920FFF7D8F90D
:1045A00010B187F3118825E780F3118886F311880D
:1045B000E168A368CC1A61424FF00A006141FFF73D
:1045C000C7F90023002881D183F31188052405E071
:1045D0009DF80400FFF7D4F9013C0FD04FF0FF31F4
:1045E00001A801F03DFBB0FA80F10B204909FFF76B
:1045F000AFF90028ECD0FDE6840800200C20D74954
:10460000FFF76EF800287FF4F5AE4FF0FF3147203A
:1046100001F096FAB0FA80F10D204909FFF798F9F8
:1046200000287FF4E7AE4FF0FF3101A801F018FB3E
:10463000B0FA80F10E204909FFF78AF900287FF4CB
:10464000D9AE2968AB68C64EC81A414241410F2015
:10465000FFF77EF900287FF4CDAE3168F368CA1AFF
:10466000514251411020FFF773F900287FF4C2AE88
:10467000012101A801F0F4FA431C594259411120CB
:10468000FFF766F900287FF4B5AE202787F311887D
:1046900001A801F00DFB014684F3118801F1010826
:1046A000D8F1000141EB08011220FFF751F9002871
:1046B0007FF4A0AE87F31188716AA1F1050CDCF1DB
:1046C000000141EB0C011320FFF742F900287FF4B1
:1046D000FCAE4FF0000888F31188202484F3118881
:1046E0001420A969B1FA81F14909FFF731F99C4E0B
:1046F000074600287FF443AF80F3118884F31188C4
:10470000F168B368C3EB010EDEF1000141EB0E016D
:104710001520FFF71DF900287FF443AF80F31188BF
:1047200084F31188412001F033FAB0FA80F11620A9
:104730004909FFF70DF900287FF45CAE422001F033
:1047400027FAB0FA80F117204909FFF701F900288C
:104750007FF450AE432001F01BFAB0FA80F118202C
:104760004909FFF7F5F800287FF444AE442001F032
:104770000FFAB0FA80F119204909FFF7E9F8074666
:1047800000287FF437AE452001F002FA014687F396
:1047900011881A20B1FA81F14909FFF7D9F80028E8
:1047A0007FF428AEF168B368CE1A714271411B20C4
:1047B000FFF7CEF800287FF41DAE2646804605247C
:1047C000202786F3118801A801F072FA014688F3C8
:1047D00011881C20B1FA81F14909FFF7B9F80028C6
:1047E0007FF408AE9DF80400FFF7CAF8013CE7D15A
:1047F0001D205A49FEF774FF00287FF4FBAD87F3B4
:104800001188696A564E4A1F514251411E20FFF7D6
:104810009FF810B184F31188ECE584F3118887F3D5
:1048200011881F20B169B1FA81F14909FFF790F8A9
:104830000028EFD184F31188F168B368CB1A59428C
:1048400059413846FFF784F800287FF4D3AD87F349
:104850001188452001F0E4F9B0FA80F121204909DE
:10486000FFF776F800287FF4C5AD442001F0D8F9B1
:10487000B0FA80F122204909FFF76AF800287FF496
:10488000B9AD432001F0CCF9B0FA80F123204909F9
:10489000FFF75EF800287FF4ADAD422001F0C0F9CB
:1048A000B0FA80F124204909FFF752F800287FF47C
:1048B000A1AD412001F0B4F90023014683F3118832
:1048C0002520B1FA81F14909FFF742F800287FF469
:1048D00091ADE968AB68C3EB0108D8F1000141EB89
:1048E00008012620FFF734F800287FF483AD044642
:1048F00005264FF02008202788F3118801A801F031
:10490000D7F9014684F311882720B1FA81F14909CA
:10491000FFF71EF800287FF46DAD9DF80400FFF747
:104920002FF8013EE7D128200C49FEF7D9FE0028D8
:104930007FF460AD87F31188696A094CA1F1050C19
:10494000DCF1000141EB0C012920FFF701F8002800
:104950003FF453AD86F311884CE500BF906A000820
:10496000840800200000000000000000000000009B
:1049700010B541210446FFF7FBFB20464221FFF71B
:10498000F7FB20464321BDE81040FFF7F1BB00BF15
:1049900070B51F4B1F4899691F4B8A6882B001325E
:1049A00000914FF4A47100F0ABFB1C4B1860FFF7B3
:1049B000BFFB2025066B85F31188314600F050FBC4
:1049C000002484F31188F0B2FEF7DAFFFFF7B0FBA2
:1049D000066B85F31188314600F042FB84F31188A1
:1049E000F0B2FEF7CDFFFFF7A3FB066B85F311884E
:1049F000314600F035FB84F31188F0B2FEF7C0FFBA
:104A00000749012002B0BDE87040FEF769BE00BF53
:104A1000780B0020F00C002071490008080B0020E2
:104A2000B06A000800000000000000000000000064
:104A300070B5194B194D9B69194A9E68194B1A4C50
:104A400082B0284600924FF4A471721C00F058FB0B
:104A5000164B2060B21C009305F5A4704FF4A471AE
:104A6000134B00F04DFB134B6060F21C4FF4A4712C
:104A7000009305F52470104B00F042FBA06000F09D
:104A8000DFFF00F0DDFFFEF7DBFD0C49012002B087
:104A9000BDE87040FEF724BE780B0020F00C00202B
:104AA000706A0008E14A0008080B0020846A0008C8
:104AB000714B0008806A0008C14A0008B06A00080B
:104AC00038B5064C0546204600F0CAFC2878FEF7AB
:104AD00057FF2046BDE8384000F022BC6C0800209B
:104AE000F8B507461B4800F0BBFC1B4800F0B8FCBB
:104AF000202383F31188194DAB699E6B304600F07B
:104B0000E7FB174BAC691846236203E09968A2687B
:104B1000914202D31B688342F8D15A6862602360D5
:104B2000072014605C6000F02BFBAB691B6A01334B
:104B300002D0304600F02CFC002383F31188387833
:104B4000FEF71EFF044800F0EBFB0248BDE8F8400A
:104B500000F0E6BB6C0800205C080020780B002009
:104B60007C080020000000000000000000000000A1
:104B700070B50646164800F073FC202383F31188B5
:104B8000144B9C69A56B284600F0A2FB12482062DA
:104B9000034603E09968A268914202D31B688342EE
:104BA000F8D15A6862602360072014605C6000F0EE
:104BB000E7FA284600F0ECFB002383F311883078F5
:104BC000FEF7DEFE0248BDE8704000F0A9BB00BF62
:104BD0005C080020780B00207C080020000000000A
:104BE00030B52C4B2C4A9B692C489D682C4B2D4C86
:104BF00083B04FF4A47100926A1C00F081FA2A4B32
:104C00002060AA1C00934FF4A471254B274800F0A4
:104C100077FA274B6060EA1C00934FF4A471204B95
:104C2000244800F06DFA244BA0602A1D00934FF435
:104C3000A4711B4B214800F063FA214BE0606A1D10
:104C400000934FF4A471164B1E4800F059FA20232C
:104C5000206183F311881C4C2368A34218BF6FF0B6
:104C6000010509D01A6822601846546000F0E8FA7D
:104C700023680562A342F5D100F0CAF9002383F34B
:104C80001188FEF7DDFC1149012003B0BDE830407A
:104C9000FEF726BD780B0020946A0008F00C002077
:104CA000714B0008080B0020886A0008380E0020AD
:104CB000846A0008800F0020806A0008C810002065
:104CC000706A0008101200207C080020906A00081A
:104CD000F0B52C4B2C4E9B692C4D9F682C4B2D4CCA
:104CE00083B07A1C009330462B464FF4A47100F039
:104CF00007FA29492060BA1C2B46009106F5A470DA
:104D00004FF4A47100F0FCF924496060FA1C2B46B2
:104D1000009106F524704FF4A47100F0F1F92049D8
:104D2000A0603A1D2B46009106F576704FF4A471F1
:104D300000F0E6F91B49E0602B4600917A1D06F56C
:104D4000A4604FF4A47100F0DBF92023206183F309
:104D5000118800F08DFE00F08BFE00F089FE00F05F
:104D600087FE00F085FE00F053F9002383F31188DD
:104D7000FEF766FC0C49012003B0BDE8F040FEF7E9
:104D8000AFBC00BF780B0020F00C0020714B000876
:104D9000946A0008080B0020886A0008846A0008EA
:104DA000806A0008706A0008906A0008000000002D
:104DB00010B4202383F31188037F072B0ED8DFE87C
:104DC00003F0270D0D2308040D08026A93680133D0
:104DD000936090E80C001A60026853604FF0FF3453
:104DE000002281680D4B046202771B689A688A4230
:104DF000FBD25A684260036000211060586081F362
:104E000011885DF8044B7047036A00221A60E5E7D9
:104E1000002383F311885DF8044B7047780B002062
:104E2000FEE700BF000000000000000000000000DE
:104E30000D4A106870B40368946913600126002558
:104E4000A1685A6006779061257700E01B689A6830
:104E50008A42FBD85A6862602360214614605C6015
:104E600070BCFBF715BA00BF780B002000000000F3
:104E700070B50468A04206460D460DD0E3682B438A
:104E8000E36015B12269134203D06068A168FFF79F
:104E90008FF92468A642F1D170BD00BF0000000068
:104EA000202383F31188024602E08B4207D01A4682
:104EB00013688342F9D1002383F3118870470B688C
:104EC0001360002383F31188704700BF00000000C7
:104ED0000246202181F31188837F013BDBB2837777
:104EE0004BB910B4047F0F2C09D0002383F3118831
:104EF0005DF8044B7047002383F311887047447FAB
:104F000004F00304012C11D0022CEED14069146985
:104F100004611469606183F31188106C81F3118856
:104F200001681160026083F31188E1E74169046957
:104F30000C610269516183F311885DF8044BFEF73F
:104F40003FBE00BF000000000000000000000000A5
:104F50000E4B0F495A688368F0B44F6F4168C668BA
:104F6000D0E90445D31ADB1BE4180268836045F1DD
:104F700000058B4206F1010688BF43609342C6607C
:104F8000C0E9044538BF0360F0BC7047001000E082
:104F9000780B00200000000000000000000000006E
:104FA00070B5202383F31188114A106894698368CF
:104FB000A1688B4203D2002383F3118870BD03687C
:104FC0001360012600255A6006779061257700E07E
:104FD0001B689A689142FBD95A6862602360214637
:104FE00014605C60FBF754F9002383F3118870BDF3
:104FF000780B00200000000000000000000000000E
:10500000FFF716BF000000000000000000000000D5
:10501000044B1A689B6992689B689A4200D8704753
:10502000FFF706BF780B0020000000000000000022
:1050300010B5202383F31188084B9B69DC6B9968BA
:105040008C4201D0814200D29860D863FFF7E0FF24
:10505000002383F31188204610BD00BF780B002089
:10506000144B70B49E6984680546B0682962844216
:105070004FF000020BD82A771B689A689442FBD93C
:105080005A686A602B6015605D6070BC704732774B
:105090001A46126891688842FBD9506870600124F2
:1050A0003260066056602C77314628469D6170BCA0
:1050B000FBF7EEB8780B00200000000000000000B5
:1050C00008B5202383F3118883680133002B8360A4
:1050D00003DD002383F3118808BD034600680268DE
:1050E0001A6000215360FFF7BBFF002383F3118890
:1050F00008BD00BF0000000000000000000000002C
:105100002DE9F04799460446202383F311881A4E6F
:105110001A4B7769243900EB010AC0F80CA000256E
:1051200040F801904FF0010C00F128090899CAF8E5
:10513000041000F1240E4FF00208CAF8203029466E
:10514000826006614761C26380F81C8080F81EC0DF
:1051500045778563456385613861C0F824E0C0F810
:105160002890C0F82C907061FFF77AFF85F31188C2
:105170002046BDE8F08700BF780B0020A1020008A0
:10518000074B30B41A689969146808770125636081
:1051900015771C60104630BC9A61FBF779B800BFE8
:1051A000780B00200000000000000000000000005C
:1051B000202383F311888368013B002B836004DB89
:1051C0000020002383F31188704710B5084CA269B2
:1051D000106241685160034610600A6005205A6001
:1051E000FFF7CEFFA369186A002383F3118810BD6F
:1051F000780B00200000000000000000000000000C
:1052000038B50446202383F31188037F0F2B07D082
:10521000084B426A9B6909201A606362FFF7B0FF7E
:10522000256A002383F311882046FFF751FE2846A4
:1052300038BD00BF780B0020000000000000000017
:1052400000228168084B10B4044602771B689A68F4
:105250008A42FBD25A6862602360204614605C6018
:105260005DF8044B704700BF780B00200000000081
:10527000134A70B52023946983F31188A36BD3B1CB
:1052800000260AE01168956B19604B609A60DD603A
:105290009363FFF7D5FFA36B4BB11A68D968A1637D
:1052A00093421046EED19E60A36B002BF5D1E36BC9
:1052B000A360FFF7ADFE002383F3118870BD00BF2C
:1052C000780B00200000000000000000000000003B
:1052D000124B30B4044605689869E3688363AC42B6
:1052E00017D0C16B4BB11A68934203D092689142B8
:1052F00038BF1146DB68002BF5D12B68AA6B8160A3
:10530000236028465C60A560E260AC6330BCFFF7B8
:1053100097BF0023A36030BC704700BF780B00200C
:10532000174B70B59D69202383F311880468C36807
:10533000AB63A0421DD0E96B4BB11A68934203D016
:105340009268914238BF1146DB68002BF5D10346C5
:105350002268A66BA96020461A6053609C60DE60DC
:10536000A363FFF76DFFFFF753FE002383F311885C
:1053700070BD00238360002383F3118870BD00BFDC
:10538000780B00200000000000000000000000007A
:10539000304B826870B59C69002A55D0A16893682B
:1053A0009942054606D9137F9160062B33D0072B0F
:1053B0001DD09BB12B4603E09968A268914202D3AD
:1053C0001B689D42F8D15A686260236014605C607B
:1053D00025620620BDE87040FFF7D2BE92E80A00C1
:1053E0001960116810464B60FFF72AFFE2E792E868
:1053F00009001860166A10684360334602E0986836
:10540000884202D31B689E42F9D1596851601360EB
:105410000A605A60CEE792E809001860166A1068C0
:105420004360334602E09868884202D31B689E427C
:10543000F9D15968516013600A605A60B268A16876
:1054400093688B42AFD3B5E7A36BC3608460A0635E
:1054500070BD00BF780B00200000000000000000BD
:1054600008B5202383F31188FFF792FF002383F30D
:10547000118808BD000000000000000000000000CE
:1054800083680133002B836000DD704703681A686E
:1054900002600021506018461962FFF7D1BE00BFBC
:1054A00070B5856881600135002D0CDC04466FF015
:1054B00001066068436863601C60FFF7C1FE013548
:1054C000012D0662F5D170BD000000000000000053
:1054D00038B52022034682F311880E4A9469606A27
:1054E000236204F12405A84206D003686362FFF733
:1054F000A7FE606AA842F8D1637F9B0704D1636965
:1055000022691A61226953610F20BDE83840FFF714
:1055100037BE00BF780B0020000000000000000034
:105520001A4BDA69824210B410D0416802680A60EE
:1055300002681C3300249A425160C46003D083681F
:1055400091680B4493605DF8044B704718461168EE
:1055500040F81C1F002481424860D46011D0946838
:105560008A68986AA3184FF080448B60616A0A1AAF
:105570009342E8D99B1A012B98BF02230B44636323
:10558000E1E74FF08043DC60DDE700BF780B0020EF
:10559000F0B51D4E37464FF0804E57F81C4FDEF8E1
:1055A00024500361012998BF0221BC42C2601BD074
:1055B000B36AA2682944CB1A934238BFCEF834109C
:1055C000934204D924689B1AA2689A42FAD362686B
:1055D00042600460106060608360A2684FF0FF3139
:1055E000D31AA3607162F0BD4F1900220223B56285
:1055F000F0613062046044608160CEF83470CEF8AF
:105600001020CEF80C30F0BD780B00200000000018
:1056100030B54B1C87B012D00C4C0D4AA36905461F
:1056200001A8FFF7B5FF2846FFF7AAFD049B13B1B9
:1056300001A8FFF775FFA369186A07B030BD034CD6
:10564000FFF79EFDA369186A07B030BD780B0020F4
:10565000B14D000800000000000000000000000044
:1056600003468068421E002A9A6001DB00207047D2
:1056700010B461B1094A926913625C68052082E83E
:10568000180022605A605DF8044BFFF7C1BF9860B4
:105690005DF8044B4FF0FF30704700BF780B0020DF
:1056A00069B1084B10B4024644689B69042083E842
:1056B0001400236053605DF8044BFFF7A9BF4FF05F
:1056C000FF307047780B0020000000000000000051
:1056D00008B50146202383F311880820FFF798FFBF
:1056E000002383F3118808BD0000000000000000C3
:1056F00010B5EFF30584C4F308041CB1002383F351
:10570000118810BDFFF784FC84F3118810BD00BF21
:10571000EFF30583C3F308031BB9202383F3118838
:105720007047202383F31188704700BF00000000FA
:10573000C20710B412D52D4A1168914244D00023FB
:105740000968914203F10103FAD14C688C4237D0C9
:105750006468944203F1FF33FAD18BBB830714D5FD
:10576000224A144654F81C1FA14233D00023096872
:10577000A14203F10103FAD1126A8A4220D0526891
:10578000A24203F1FF33FAD1D3B910F0040014D0D0
:10579000164A1369934223D000201B69934200F1FB
:1057A0000100FAD1596999420AD04969914200F140
:1057B000FF30FAD1003018BF01205DF8044B70476C
:1057C00001205DF8044B70475468944218BF0023D1
:1057D000BED1C3E7126AA24218BF0023CFD1D4E7DB
:1057E000596999424FF00000DFD1E6E7780B0020BD
:1057F000FEE700BF00000000000000000000000005
:10580000F0B4114E002506F1800796E81A00A34275
:105810000DD204391A4651F8040F42F8040BA24283
:10582000F9D3DA43144424F0030404342344F26823
:10583000934203D243F8045B9342FBD31036BE423B
:10584000E3D3F0BC704700BFD06A0008000000003E
:10585000FEE700BF000000000000000000000000A4
:10586000704700BF000000000000000000000000C2
:10587000704700BF000000000000000000000000B2
:10588000014B5B6883607047001000E0000000007F
:105890002DE9F04707460D461E484FF4A471FEF768
:1058A000DFF9044698B3202383F311881A4AC0F81D
:1058B0002851D2F814C0DFF86490DFF86480876064
:1058C00000254FF0010E00F1280300F5927A00F157
:1058D00024060221C0F80CA001770261C0F814C0B0
:1058E000C763C0F82491C0F844818563456385612E
:1058F00080F81EE02946CCF81000466280F81DE0D2
:105900008362C3625061FFF7ABFB85F311882046C9
:10591000BDE8F08758130020780B0020E11F000835
:10592000A1020008000000000000000000000000CC
:105930002DE9F84F214E804630468946FEF700F9A2
:105940000446002837D0202383F3118873681C4A4B
:105950001C4DD2F814C01C49243B00EB030BC0F8CB
:105960000CB04FF0020EC55000F12407002500F1E5
:1059700028034FF0010ACBF80490CBF82010C0F8B0
:1059800008800261C0F814C0C0F83C8080F81EA0F6
:1059900080F81CE08563456385612946CCF81000DA
:1059A000476280F81DE006648362C3625061FFF7BE
:1059B00057FB85F311882046BDE8F88FCC0C0020FA
:1059C000780B0020E11F0008A10200080000000081
:1059D00010B5202383F31188154CA3680133002BE5
:1059E000A3601BDD013B002BA360114A06DBFFF720
:1059F0000FFB0020002383F3118810BD0D4953686D
:105A00008C69052084E80C001C6022625460FFF75A
:105A1000B7FB206A002383F3118810BD2068036858
:105A200023605C60FFF70CFC0022A3680262D9E7E8
:105A3000AC080020780B00200000000000000000EF
:105A400008B5202383F31188064B1868984205D0C7
:105A500002681A6053600021FFF702FB002383F302
:105A6000118808BD7C080020000000000000000034
:105A7000074B1A689A420AD0116810B400244B6090
:105A80001462196010465DF8044BFFF7D9BB7047EC
:105A90007C08002000000000000000000000000062
:105AA000202383F31188044B9A690023506B5363BE
:105AB00083F31188704700BF780B002000000000BE
:105AC0000B4A10B52023946983F31188636B33B9B3
:105AD0004FF0FF3323620A20FFF752FB636B5842FB
